:100000000C94E5020C940D030C940D030C940D0359
:100010000C940D030C940D030C940D030C940D0320
:100020000C940D030C940D030C940D030C940D0310
:100030000C940D030C940D030C940D030C940D0300
:100040000C94C3270C940D030C9491270C946B27EC
:100050000C940D030C940D030C940D030C940D03E0
:100060000C940D030C940D0300000000003E5B4F48
:100070005B3E3E6B4F6B3E1C3E7C3E1C183C7E3C08
:10008000181C577D571C1C5E7F5E1C00183C180016
:10009000FFE7C3E7FF0018241800FFE7DBE7FF30A6
:1000A000483A060E2629792926407F050507407F14
:1000B00005253F5A3CE73C5A7F3E1C1C08081C1C87
:1000C0003E7F14227F22145F5F005F5F06097F017D
:1000D0007F006689956A606060606094A2FFA29468
:1000E00008047E040810207E201008082A1C080836
:1000F0001C2A08081E101010100C1E0C1E0C303884
:100100003E3830060E3E0E06000000000000005F84
:1001100000000007000700147F147F14242A7F2AA0
:100120001223130864623649562050000807030062
:10013000001C2241000041221C002A1C7F1C2A08AE
:10014000083E080800807030000808080808000011
:1001500060600020100804023E5149453E00427F85
:10016000400072494949462141494D331814127FD4
:100170001027454545393C4A494931412111090774
:100180003649494936464949291E000014000000F5
:1001900040340000000814224114141414140041C7
:1001A00022140802015909063E415D594E7C121184
:1001B000127C7F494949363E414141227F414141BC
:1001C0003E7F494949417F090909013E4141517337
:1001D0007F0808087F00417F41002040413F017FA8
:1001E000081422417F404040407F021C027F7F0470
:1001F00008107F3E4141413E7F090909063E4151B9
:10020000215E7F09192946264949493203017F01A8
:10021000033F4040403F1F2040201F3F4038403FA9
:10022000631408146303047804036159494D4300BF
:100230007F4141410204081020004141417F0402F6
:10024000010204404040404000030708002054548D
:1002500078407F284444383844444428384444286B
:100260007F385454541800087E090218A4A49C78BE
:100270007F0804047800447D40002040403D007F1A
:100280001028440000417F40007C047804787C08FA
:100290000404783844444438FC18242418182424CE
:1002A00018FC7C08040408485454542404043F44B3
:1002B000243C4040207C1C2040201C3C4030403CE2
:1002C00044281028444C9090907C4464544C440042
:1002D00008364100000077000000413608000201A6
:1002E0000204023C2623263C1EA1A161123A404092
:1002F000207A38545455592155557941225454780F
:1003000042215554784020545579400C1E527212A7
:100310003955555559395454545939555454580030
:1003200000457C410002457D420001457C407D1234
:1003300011127DF0282528F07C5455450020545496
:100340007C547C0A097F4932494949323A44444441
:100350003A324A4848303A4141217A3A424020787C
:10036000009DA0A07D3D4242423D3D4040403D3C7D
:1003700024FF2424487E4943662B2FFC2F2BFF09A2
:1003800029F620C0887E0903205454794100004496
:100390007D413048484A32384040227A007A0A0A81
:1003A000727D0D19317D2629292F282629292926F4
:1003B00030484D4020380808080808080808382F39
:1003C00010C8ACBA2F102834FA00007B00000814C3
:1003D0002A142222142A14085500550055AA55AA99
:1003E00055AAFF55FF55FF000000FF00101010FF39
:1003F00000141414FF001010FF00FF1010F010F094
:10040000141414FC001414F700FF0000FF00FF1484
:1004100014F404FC141417101F10101F101F1414D0
:10042000141F00101010F0000000001F101010101A
:100430001F10101010F010000000FF10101010100E
:1004400010101010FF10000000FF140000FF00FF4C
:1004500000001F10170000FC04F4141417101714E8
:1004600014F404F40000FF00F7141414141414140A
:10047000F700F7141414171410101F101F1414147D
:10048000F4141010F010F000001F101F0000001FE7
:1004900014000000FC140000F010F01010FF10FF1A
:1004A000141414FF141010101F00000000F010FFAF
:1004B000FFFFFFFFF0F0F0F0F0FFFFFF0000000093
:1004C00000FFFF0F0F0F0F0F3844443844FC4A4A17
:1004D0004A347E02020606027E027E0263554941CC
:1004E000633844443C04407E201E2006027E020203
:1004F00099A5E7A5991C2A492A1C4C7201724C3017
:100500004A4D4D303048784830BC625A463D3E49ED
:100510004949007E0101017E2A2A2A2A2A44445F91
:10052000444440514A444040444A51400000FF0185
:1005300003E080FF000008086B6B08361236243693
:10054000060F090F060000181800000010100030F8
:1005500040FF0101001F01011E00191D1712003C80
:100560003C3C3C00000000000000000800020100CC
:10057000000304070000000000000000000000006D
:10058000240027002A007C3C3E5E2B3D3F2F5B5D14
:100590003B2C2A225C00010204081020408001024A
:1005A00004081020010204081020000000002500AB
:1005B00028002B00040404040404040402020202C0
:1005C00002020303030303030D2811241FBECFEF10
:1005D000D8E0DEBFCDBF12E0A0E0B1E0E6EDF6E688
:1005E00002C005900D92A431B107D9F725E0A4E12E
:1005F000B2E001C01D92A53EB207E1F712E0C5EEE0
:10060000D2E004C02197FE010E941232C43ED107FD
:10061000C9F70E9429290C9469330C940000E091D9
:10062000D005F091D10520813091DC052323208372
:10063000442309F444C0E091D205F091D305208110
:100640003091DD05232320832091CF05211118C08F
:100650002BB123702BB925B12C7F25B9E091D4059E
:10066000F091D50520813091DE0523232083E09190
:10067000D405F091D50520813091DA05232B208314
:100680003091CF053250E091D405F091D5054091DD
:10069000DE052BB12370323008F05CC02C622BB920
:1006A00035B13C7F35B9208124232083E091D405E6
:1006B000F091D50520813091DA05232B2083E0913C
:1006C000D205F091D30520813091D905232B2083C9
:1006D000FC01615008F445C03081818132962BB114
:1006E0002370982F9C7F292B2BB995B19C7F837009
:1006F000982B95B9A091D405B091D5058C91909186
:10070000DE0589238C93A091D405B091D5058C91F9
:100710009091DA05892B8C939BB19370832F8C7FFA
:10072000982B9BB985B18C7F3370832B85B9A091B1
:10073000D405B091D5058C919091DE0589238C93D9
:10074000A091D405B091D5058C919091DA05892BB3
:100750008C93BFCF20622BB925B12C7F226025B9A5
:10076000A2CFE091D005F091D10580819091D8057C
:10077000892B80830895AF92BF92CF92DF92EF9240
:10078000FF920F931F93CF93DF936C017B018B013B
:10079000040F151FEB015E01AE18BF08C017D1078B
:1007A00059F06991D601ED91FC910190F081E02D15
:1007B000C6010995892B79F7C501DF91CF911F916A
:1007C0000F91FF90EF90DF90CF90BF90AF90089582
:1007D000FC01538D448D252F30E0842F90E0821B47
:1007E000930B541710F0CF96089501970895FC01CC
:1007F000918D828D981761F0A28DAE0FBF2FB11D24
:100800005D968C91928D9F5F9F73928F90E008957B
:100810008FEF9FEF0895FC01918D828D981731F035
:10082000828DE80FF11D858D90E008958FEF9FEF89
:100830000895FC01918D228D892F90E0805C9F4F5F
:10084000821B91098F739927089587EC94E00E9489
:10085000190421E0892B09F420E0822F089580E01B
:1008600090E0892B29F00E94250481110C9400004E
:100870000895FC01A48DA80FB92FB11DA35ABF4F35
:100880002C91848D90E001968F739927848FA6898F
:10089000B7892C93A089B1898C91837080648C93E3
:1008A000938D848D981306C00288F389E02D808192
:1008B0008F7D80830895EF92FF920F931F93CF93C4
:1008C000DF93EC0181E0888F9B8D8C8D98131AC08B
:1008D000E889F989808185FF15C09FB7F894EE8972
:1008E000FF896083E889F9898081837080648083CF
:1008F0009FBF81E090E0DF91CF911F910F91FF901A
:10090000EF900895F62E0B8D10E00F5F1F4F0F73C1
:100910001127E02E8C8D8E110CC00FB607FCFACF7C
:10092000E889F989808185FFF5CFCE010E943904DD
:10093000F1CFEB8DEC0FFD2FF11DE35AFF4FF0824D
:100940009FB7F8940B8FEA89FB8980818062CFCFB3
:10095000CF93DF93EC01888D8823B9F0AA89BB89F6
:10096000E889F9898C9185FD03C0808186FD0DC0E1
:100970000FB607FCF7CF8C9185FFF2CF808185FF02
:10098000EDCFCE010E943904E9CFDF91CF910895D8
:1009900090E0FC01E859FA4F2491FC01EA56FA4F25
:1009A0003491FC01EC54FA4FE491EE23C9F0222378
:1009B00039F0233001F1A8F4213019F1223029F166
:1009C000F0E0EE0FFF1FE655FA4FA591B4918FB7F7
:1009D000F894EC91611126C030953E233C938FBF73
:1009E00008952730A9F02830C9F0243049F78091C4
:1009F00080008F7D03C0809180008F77809380007E
:100A0000DFCF84B58F7784BDDBCF84B58F7DFBCFFF
:100A10008091B0008F778093B000D2CF8091B000EA
:100A20008F7DF9CF3E2BDACFCF93DF9390E0FC019F
:100A3000EA56FA4F24918C549A4FFC0184918823F2
:100A4000D1F090E0880F991FFC01E458FA4FA5916E
:100A5000B491FC01E655FA4FC591D49161110EC0D5
:100A60009FB7F8948C91E22FE0958E238C93288188
:100A7000E223E8839FBFDF91CF9108958FB7F89469
:100A8000EC91E22BEC938FBFF6CF8E3008F08E50B6
:100A90008770806480937C0080917A00806480936A
:100AA0007A0080917A0086FDFCCF80917800909149
:100AB000790008953FB7F89480912502909126021D
:100AC000A0912702B091280226B5A89B05C02F3F10
:100AD00019F00196A11DB11D3FBFBA2FA92F982F64
:100AE0008827BC01CD01620F711D811D911D42E05F
:100AF000660F771F881F991F4A95D1F708958F9227
:100B00009F92AF92BF92CF92DF92EF92FF926B01D2
:100B10007C010E945A054B015C01C114D104E1041F
:100B2000F104B9F00E945A05681979098A099B09EC
:100B3000683E73408105910580F321E0C21AD10817
:100B4000E108F10888EE880E83E0981EA11CB11C14
:100B5000E4CFFF90EF90DF90CF90BF90AF909F9049
:100B60008F900895E091D005F091D105808190910A
:100B7000D805892B8083E091D405F091D50580813B
:100B80009091DA05892B8083E091D605F091D70505
:100B900080819091DB05892B80838091E0058823FB
:100BA00071F060E00E94C80462E070E080E090E0D4
:100BB0000E947F0561E08091E0050E94C804E091F9
:100BC000D005F091D10580819091DC058923808347
:100BD000E091D205F091D30580819091DD058923C4
:100BE00080838BB183708BB985B18C7F85B9E0919F
:100BF000D405F091D50580819091DE05892380830D
:100C0000E091D405F091D50580819091DA05892B8A
:100C1000808383E0E091D405F091D5059081209107
:100C2000DE0592239083E091D405F091D505908163
:100C30002091DA05922B9083815061F7E091D005E5
:100C4000F091D10580819091D805892B80830895FA
:100C50002FB7F894609121027091220280912302B3
:100C6000909124022FBF08958FB7F89480911B02B2
:100C70008FBF089561E0FC0184810E94C8048091C7
:100C80001A02811110921A0208958EBD00000DB44F
:100C900007FEFDCF8EB508958FEF0C9445060F9398
:100CA0001F93CF93DF93EC010E9428068B010E94D3
:100CB0004C068F3F69F00E942806601B710B6C1771
:100CC0007D07A8F380E0DF91CF911F910F910895E8
:100CD00081E0F9CF8CBD9DBD0895CF93DF93EC01EA
:100CE00080911A02811109C081E080931A028091DB
:100CF0006405909165050E946A0660E08C81DF9131
:100D0000CF910C94C8048F929F92AF92BF92FF92A2
:100D10000F931F93CF93DF93EC01F62E49015A01F5
:100D20008E81882389F08F8198859C012F5F3F4FAA
:100D300038872F838230924018F40E944C06F3CFFC
:100D4000CE010E943A061E82CE010E946D068CE200
:100D500091E00E944F068F2D80640E94450608E1B5
:100D600010E0D501C401002E04C0B695A795979553
:100D700087950A94D2F70E94450608501109083F4A
:100D80008FEF180771F785E9FF2021F028E087E849
:100D9000F2128FEF0E94450610E00E944C068A87EF
:100DA00087FF04C01F3F11F01F5FF7CFDF91CF9186
:100DB0001F910F91FF90BF90AF909F908F900895DB
:100DC000AF92BF92CF92DF92EF92FF920F931F9359
:100DD000CF93DF93EC016901C801820F931F81302B
:100DE000924050F58E81882379F088819981AA817B
:100DF000BB8184179507A607B70731F48F819885C3
:100E0000C816D90608F042C0488359836A837B8399
:100E10008B85833039F089E0440F551F661F771F9B
:100E20008A95D1F79A01AB0161E1CE010E94830658
:100E3000882389F083E08D83CE010E943A0680E00A
:100E4000DF91CF911F910F91FF90EF90DF90CF90A6
:100E5000BF90AF9008950E9428065B010E944C0647
:100E60008A878F3F69F40E9428066A197B096D32D0
:100E70007140A0F38FE08D83CE010E943A06DCCF53
:100E80008E3F89F418861F8281E08E838F8198853A
:100E90008C159D0550F40E944C068F819885019613
:100EA00098878F83F3CF8DE0E6CF6701E00EF11EC8
:100EB0000E944C06F60181936F01EE15FF05C1F704
:100EC0008F819885080F191F18870F8389858823BC
:100ED00019F001151240A0F08E81882389F08F81CE
:100EE00098859C012F5F3F4F38872F838230924037
:100EF00018F40E944C06F3CFCE010E943A061E82DF
:100F000081E09ECFCF92DF92EF92FF920F93CF932B
:100F1000DF93EC01690182E141155105610571051D
:100F200099F08B85833039F089E0440F551F661F97
:100F3000771F8A95D1F79A01AB0168E1CE010E9433
:100F40008306882319F084E08D832DC08EEF0E94E4
:100F5000450676018EEFD81AF70181917F010E9434
:100F60004506EC14FD04C1F78FEF0E9445068FEF94
:100F70000E9445060E944C068A878F71853071F465
:100F8000011116C0CE010E943A0681E0DF91CF9197
:100F90000F91FF90EF90DF90CF90089581E18D83C6
:100FA000CE010E943A06CE010E943A0680E0EECFC2
:100FB00088E592E00E944F06811102C085E1C4CF0E
:100FC00020E030E0A9016DE0CE010E948306882375
:100FD00011F084E1B9CF0E944C068111FACFD2CF33
:100FE0000F9340911C0250911D0260911E0270915E
:100FF0001F02411551056105710599F0082F27EC75
:1010000032E08091C4029091C5020E948207882339
:1010100049F010921C0210921D0210921E021092B2
:101020001F0281E00F9108950F93CF93C82F8091F5
:10103000C602811105C0C1E08C2FCF910F91089598
:1010400040910301509104016091050170910601E6
:101050000C2F27EC32E08091C4029091C5020E94CF
:101060008207811102C0C0E0E7CFCC2321F381E0E9
:101070000E94F0078823B9F31092C602DDCF8F9249
:101080009F92AF92BF92EF92FF920F931F93CF93D5
:101090004B015C01C42F8091030190910401A09148
:1010A0000501B091060188159905AA05BB0551F106
:1010B00081E00E94140881110BC080E0CF911F9144
:1010C0000F91FF90EF90BF90AF909F908F900895F9
:1010D00087ECE82E82E0F82E00E012E030E020E01D
:1010E000B501A4018091C4029091C5020E94E0065E
:1010F000882319F38092030190920401A0920501C4
:10110000B09206014091C6024C2B4093C60281E08A
:10111000D5CF8F929F92AF92BF92CF92DF92EF92F4
:10112000FF92CF9326E635E03093C5022093C402A8
:10113000882309F46DC040E060E070E0CB010E94BC
:101140003F0881110BC080E0CF91FF90EF90DF90BE
:10115000CF90BF90AF909F908F900895809185041D
:101160008F7789F78091910490919204A0919304D4
:10117000B091940484369105A105B10520F3C09087
:101180008D04D0908E04E0908F04F0909004C114F0
:10119000D104E104F104B9F240E0C701B6010E94B4
:1011A0003F08882381F28091D2029091D302811569
:1011B000924049F6A091D702AA2329F26091D50264
:1011C0007091D6026115710509F4BDCF2091D4024A
:1011D000222309F4B8CFA09384052093760590E0EC
:1011E00080E030E0E1E0F0E0C82FAF01082E02C05F
:1011F000440F551F0A94E2F72417350769F041E0C0
:10120000480F01968930910579F740937F059BCF70
:10121000C12CD12C7601C0CF80937F052091DD02B7
:101220003091DE0250E040E02115310541F420917B
:10123000EB023091EC024091ED025091EE022093CE
:101240007705309378054093790550937A054601E8
:101250005701860E971EA11CB11C809285059092A5
:101260008605A0928705B0928805E091D802F0919A
:10127000D902F0938B05E0938A05B0E00E94A32F7A
:10128000DC01CB01880D991DAA1DBB1D80938C0527
:1012900090938D05A0938E05B0938F0525E0EE0FFA
:1012A000FF1F2A95E1F7E150FE4FEF2FFF27E6954C
:1012B0008E0F9F1FA11DB11D809380059093810506
:1012C000A0938205B09383058090DA029090DB02B0
:1012D000B12CA12C8114910441F48090E7029090EC
:1012E000E802A090E902B090EA02C81AD90AEA0A14
:1012F000FB0AC80CD91CEA1CFB1C04C0F694E7943A
:10130000D794C794CA95D2F7C0927B05D0927C053A
:10131000E0927D05F0927E0585EFC8168FE0D80635
:10132000E104F10428F48CE08093890581E00CCF7E
:1013300080E125EFC2162FEFD206E104F104A0F3FD
:101340008091F3029091F402A091F502B091F6021F
:1013500080938C0590938D05A0938E05B0938F0597
:1013600080E2E2CF4F925F926F927F928F929F9234
:10137000AF92BF92CF92DF92EF92FF920F931F93A3
:10138000CF93DF93EC01423051056105710590F474
:1013900080E0DF91CF911F910F91FF90EF90DF9050
:1013A000CF90BF90AF909F908F907F906F905F9005
:1013B0004F90089589859A85AB85BC850196A11DBE
:1013C000B11D84179507A607B70710F3CB88DC88F3
:1013D000ED88FE888F89803109F042C0BB27A72F96
:1013E000962F852F480159012A013B01C80ED91EAD
:1013F000EA1EFB1E8091030190910401A09105015A
:10140000B0910601C816D906EA06FB0699F58F8940
:101410008031C1F5B301A201552766277727440F14
:10142000551F49535D4FFA01918280828091C60217
:1014300081608093C6028A89823080F08D819E818E
:10144000AF81B8858C0D9D1DAE1DBF1D80931C0204
:1014500090931D02A0931E02B0931F0281E099CFCA
:10146000DB01CA01E7E0B695A79597958795EA95C0
:10147000D1F7B8CF40E0C701B6010E943F08811103
:10148000C6CF86CFB301A2014F77552766277727AE
:10149000440F551F440F551F49535D4FFA01808279
:1014A0009182A282B382C2CF8F929F92AF92BF925B
:1014B000CF92DF92EF92FF920F931F93CF93DF9320
:1014C000FC0181859285A385B4850196A11DB11D7E
:1014D00084179507A607B70770F480E0DF91CF91D6
:1014E0001F910F91FF90EF90DF90CF90BF90AF9042
:1014F0009F908F90089583889488A588B68887895F
:10150000803189F5BB27A72F962F852FE9016A0126
:101510007B018F01BC01CD01680D791D8A1D9B1DCA
:101520008090030190900401A0900501B090060105
:1015300086169706A806B90601F5F8018789803155
:1015400011F5DD24EE24FF24F601EE0FFF1FE95311
:10155000FD4F80819181B0E0A0E088839983AA83C8
:10156000BB8381E0BBCFDB01CA01C7E0B695A7957D
:1015700097958795CA95D1F7C9CF40E00E943F085B
:101580008111DBCFAACFE894C7F8DD24EE24FF2435
:10159000F601EE0FFF1FEE0FFF1FE953FD4F808195
:1015A0009181A281B381BF70D8CF4F925F926F9229
:1015B0007F92AF92BF92CF92DF92EF92FF920F9302
:1015C0001F93CF93DF9300D000D0CDB7DEB78C014F
:1015D00049835A836B837C835901C12CD12C7601BA
:1015E000412C82E0582E612C712C49815A816B81EB
:1015F0007C819E012F5F3F4FC8010E94540A8823BF
:1016000039F1F8018585A301920104C0220F331F2F
:10161000441F551F8A95D2F7DA01C901C80ED91E99
:10162000EA1EFB1E49815A816B817C81878980314A
:1016300011F188EF9FEFAFEFBFE0481759076A0736
:101640007B0798F2F501C082D182E282F38281E0C9
:101650000F900F900F900F90DF91CF911F910F91EE
:10166000FF90EF90DF90CF90BF90AF907F906F9002
:101670005F904F90089588EF9FEFA0E0B0E0DDCF3E
:10168000CF93DF93FC012581222321F080E0DF91BD
:10169000CF910895EC0180918905803159F582E060
:1016A0008583178A108E118E128E80918A059091F3
:1016B0008B05B0E0A0E025E0880F991FAA1FBB1F93
:1016C0002A95D1F7838B948BA58BB68B82E795E017
:1016D0009C8F8B8F81E08C831E821F8218861986D7
:1016E0001A861B861C861D861E861F86188A198AE6
:1016F0001A8ACDCF803251F683E0858340918C05E4
:1017000050918D0560918E0570918F05478B508F9C
:10171000618F728F9F012D5E3F4F82E795E00E949F
:10172000D50A8111D3CFB2CF8F929F92AF92BF9241
:10173000CF92DF92EF92FF920F931F93CF93DF939D
:10174000EC018D8181110EC080E0DF91CF911F915E
:101750000F91FF90EF90DF90CF90BF90AF909F9050
:101760008F9008950B891C892D893E8904171507D0
:101770002607370748F34A015B01823031F48A8635
:101780009B86AC86BD8681E0E0CF81149104A104E4
:10179000B10449F41E821F82188619861A861B8698
:1017A0001C861D86F0CF0A851B852C853D85EB8D1B
:1017B000FC8D858590E00996B901A8014150510939
:1017C00061097109082E04C076956795579547956C
:1017D0000A94D2F775016401E1E0CE1AD108E1085C
:1017E000F10804C0F694E794D794C7948A95D2F789
:1017F000C416D506E606F70620F0012B022B032BB4
:1018000011F58F89988DA98DBA8D8E839F83A887B6
:10181000B9878E010A5F1F4FC114D104E104F1049E
:1018200009F4ADCF4E815F816885798598018B8DF4
:101830009C8D0E94540A91E0C91AD108E108F10870
:101840008111EACF81CFC41AD50AE60AF70AE1CF9F
:101850003F924F925F926F927F928F929F92AF9240
:10186000BF92CF92DF92EF92FF920F931F93CF938D
:10187000DF93CDB7DEB72C970FB6F894DEBF0FBE5F
:10188000CDBF5C01DC015B968D909C905C971696B9
:101890004D905D906D907C901997411451046104B6
:1018A000710409F468C0BFEF4B1A5B0A6B0A7B0A2C
:1018B000312CF40181859285A385B4859C01AD010D
:1018C0002F5F3F4F4F4F5F4F29873A874B875C878A
:1018D000730162011D821E821F821886F4018185B8
:1018E0009285A385B4852D813E814F815885281727
:1018F00039074A075B0708F056C089859A85AB858A
:10190000BC858C159D05AE05BF0550F482E0C82E40
:10191000D12CE12CF12C92E0492E512C612C712C10
:101920009E012F5F3F4FB701A601C4010E94540AD8
:101930008823C9F189819A81AB81BC81892B8A2B4B
:101940008B2B09F1260137019FEF491A590A690AC1
:10195000790A2D813E814F8158852F5F3F4F4F4F30
:101960005F4F2D833E834F8358873FEFC31AD30ABF
:10197000E30AF30AB3CFF4014080518062807380A0
:101980003324339496CFC414D504E604F70409F73E
:101990000FEF1FEF2FEF3FE0B701A601C4010E9438
:1019A000B209811119C080E02C960FB6F894DEBF01
:1019B0000FBECDBFDF91CF911F910F91FF90EF90A0
:1019C000DF90CF90BF90AF909F908F907F906F905F
:1019D0005F904F903F900895D50116964D915D917F
:1019E0006D917C911997411551056105710539F08B
:1019F00097018601C4010E94B2098823A1F2D50192
:101A00001696CD92DD92ED92FC921997332051F00B
:101A1000D701C6010196A11DB11DF40180839183F8
:101A2000A283B383F5018789908DA18DB28D892B17
:101A30008A2B8B2B39F48481C78AD08EE18EF28E6B
:101A400080688483F50184818062848381E0ACCFE7
:101A50002F923F924F925F926F927F928F929F92BE
:101A6000AF92BF92CF92DF92EF92FF920F931F93AC
:101A7000CF93DF93EC015B012A018D81811115C0A9
:101A80008FEF9FEFDF91CF911F910F91FF90EF901C
:101A9000DF90CF90BF90AF909F908F907F906F908E
:101AA0005F904F903F902F9008958C8180FFE8CFFA
:101AB0000B891C892D893E894A855B856C857D85CE
:101AC000C201B0E0A0E068017901C41AD50AE60AB3
:101AD000F70AC816D906EA06FB0618F42801441AC4
:101AE000550A42011E0126E0220E311C8114910488
:101AF00009F4B3C04A855B856C857D856A0181E008
:101B0000D8228B8D9C8D8A019B01E9E03695279523
:101B100017950795EA95D1F7ED81E230E1F5FC01E3
:101B2000628D738D848D958D600F711F821F931F41
:101B3000612C22E0722E6C187D088614970408F43C
:101B400034012C8126FD04C06114F2E07F0671F49B
:101B500000910301109104012091050130910601CB
:101B6000061717072807390709F053C040E00E94FD
:101B70003F08882309F484CFC60189539D4FD501BE
:101B80009C01260D371DFC012E173F0709F460C08C
:101B900041914D93F9CFFC0174807A947022C11465
:101BA000D10471F471100CC0452B462B472B39F52D
:101BB0008F89988DA98DBA8D8E839F83A887B987C9
:101BC000EB8DFC8D6E817F818885998562507109CE
:101BD00081099109258504C0660F771F881F991F09
:101BE0002A95D2F70685178520893189600F711FE4
:101BF000821F931F670D711D811D911D99CF4E810D
:101C00005F816885798591010E94540A8111D8CF3E
:101C100037CF750183019601AB01BC018091C402ED
:101C20009091C5020E94E006882309F429CFA60CF2
:101C3000B71C8A859B85AC85BD85860D971DA11D2A
:101C4000B11D8A879B87AC87BD87861897084ECFC2
:101C5000281B390BA20EB31EECCFC20113CF1F936A
:101C6000CF93DF93FC0125812223D1F1162FEC01C4
:101C7000848187FF2AC0668577858089918941E0C4
:101C80000E943F08882361F1EA8980E2E89FF00121
:101C90001124E953FD4F309719F18D81823040F4C2
:101CA0008B899C89AD89BE89848F958FA68FB78FCC
:101CB0008F89988D938F828F8F89988DA98DBA8DFA
:101CC000B58BA48B8C818F778C83111103C08C8191
:101CD0008F7E8C83812FDF91CF911F910C941408FC
:101CE00080E0DF91CF911F910895FF920F931F9392
:101CF000CF93DF93EC018D81813041F090E080E063
:101D0000DF91CF911F910F91FF9008958C8181FFFA
:101D1000F5CF82FD1BC00091C4021091C502C8011D
:101D20000E946D060E944C06F82EC8010E943A06D9
:101D30008FEFF812E3CF8C8185FF1BC060E0CE01EE
:101D40000E942F0E8C818F7D8C83D8CF4B895C892C
:101D50006D897E898A859B85AC85BD8584179507AD
:101D6000A607B707C1F2CE010E94940B8111D3CF11
:101D7000C5CF40911C0250911D0260911E027091CE
:101D80001F02452B462B472B21F080E00E94F007D5
:101D9000B5CF80618C832A853B85317080E092E0ED
:101DA000821B930BADCFCF93DF93EC0161E00E94D8
:101DB0002F0E882311F01D8281E0DF91CF910895CD
:101DC0002F923F924F925F926F927F928F929F924B
:101DD000AF92BF92CF92DF92EF92FF920F931F9339
:101DE000CF93DF9300D000D01F92CDB7DEB77C0138
:101DF0005B01342E5D83DC0115968C911597813043
:101E000009F0CEC014962C9021FECAC022FCB4C0AA
:101E1000C32CDD8022947FE027222094B22DB17064
:101E20002B2ED7011A964D915D916D917C911D9746
:101E3000C114D10409F428C15B968D919C915C97E3
:101E4000FC0174807A948A019B0169E0369527959C
:101E5000179507956A95D1F770228A011170711054
:101E600020C001151105E9F416964D915D916D9113
:101E70007C911997411551056105710509F099C0CB
:101E800057968D919D910D90BC91A02D0097A10525
:101E9000B10509F0B0C0C7010E94280C882309F4DD
:101EA0007FC080E092E0801B910B46018C159D0560
:101EB00008F44C01D7015B964D915C915C971696A6
:101EC0008D919D910D90BC91A02D0297A109B10912
:101ED000FA01258504C0880F991FAA1FBB1F2A95E8
:101EE000D2F74685578560897189840F951FA61F93
:101EF000B71F9C01AD01270D311D411D511D290149
:101F00003A01811432E0930609F07BC0809103010D
:101F100090910401A0910501B091060184159505E9
:101F2000A605B70559F48FEF9FEFDC0180930301FD
:101F300090930401A0930501B0930601022D950131
:101F4000B301A2018091C4029091C5020E94820750
:101F5000882331F19EEFB91AC818D908F701828594
:101F60009385A485B585880D991DA11DB11D828716
:101F70009387A487B58755CFF7014389548965892D
:101F8000768982859385A485B585481759076A07A0
:101F90007B0709F43DCFC7010E94940B811138CF14
:101FA00081E090E0D70113969C938E93129780E086
:101FB00007C09E012F5F3F4F0E94540A811102C04B
:101FC00090E079C089819A81AB81BC81F701238D32
:101FD000348DF901278948EF5FEF60E070E0203130
:101FE00021F048EF5FEF6FEF7FE084179507A607BA
:101FF000B70708F050CFF70186839783A087B18792
:1020000050CF0115110599F5D7011A964D915D91A3
:102010006D917C911D9753968D919D910D90BC91E2
:10202000A02D481759076A077B0708F181E00E9435
:102030001408882309F4B4CF40920301509204019C
:1020400060920501709206018091C60281608093C2
:10205000C602C80189539D4FD5019C01280D391D29
:10206000FC012E173F0759F04D914193FACF41E003
:10207000C301B2010E943F088111EBCF91CF281B11
:10208000390BA20EB31E68CFF70183899489A58905
:10209000B68984179507A607B70738F48481438B60
:1020A000548B658B768B80688483F701848183FDF4
:1020B0001AC0832D9D810F900F900F900F900F905D
:1020C000DF91CF911F910F91FF90EF90DF90CF9014
:1020D000BF90AF909F908F907F906F905F904F9048
:1020E0003F902F90089561E0C7010E942F0E882332
:1020F00009F456CFDECFCF93DF931F92CDB7DEB773
:10210000698341E050E0BE016F5F7F4F0E94E00EA7
:102110000F90DF91CF910895FC01DB0112968D9114
:102120009C911397938382838BE491E091838083C6
:1021300014968C911497848315968C9115978583AA
:1021400016964D915D916D917C91199746835783B9
:10215000608771871A964D915D916D917C911D9765
:1021600042875387648775871E964D915D916D9167
:102170007C91519746875787608B718B52968C91D3
:102180005297828B53964D915D916D917C915697AC
:10219000438B548B658B768B57964D915D916D91EA
:1021A0007C915A97478B508F618F728F5B968D9180
:1021B0009C91948F838F0895FC01818D928D00975F
:1021C00019F061E00C942F0E0895DC015996ED9101
:1021D000FC913097B9F083899489A589B6894285A5
:1021E000538564857585841B950BA60BB70B8115EC
:1021F00020E89207A105B10538F08FEF9FE7A0E036
:10220000B0E0089590E080E00895DC0159968D914A
:102210009C91009739F0DC01ED91FC910480F581EF
:10222000E02D099490E080E00895CF93DF93EC01D6
:10223000E98DFA8D309749F481E090E09B838A83A1
:1022400090E080E0DF91CF91089513821282898D12
:102250009A8D0E94E00EE98DFA8D22813381232B25
:1022600059F7F0CFCF93DF931F92CDB7DEB76983D5
:10227000DC01ED91FC910280F381E02D41E050E022
:10228000BE016F5F7F4F09950F90DF91CF91089549
:10229000CF93DF931F92CDB7DEB741E050E0BE0190
:1022A0006F5F7F4F0E94280D019731F4898190E084
:1022B0000F90DF91CF9108958FEF9FEFF9CFFC0141
:1022C000818D928D009711F00C9448118FEF9FEF44
:1022D00008950F931F93CF93DF93EC01898D9A8D0F
:1022E00010E000E0009799F00E9448118C010F3F28
:1022F000100769F0898D9A8DFC01428553856485AC
:10230000758541505109610971090E94940BC801FA
:10231000DF91CF911F910F910895CF92DF92EF92AD
:10232000FF92FC01A18DB28D8C9195A189238C9394
:10233000A38DB48D8C9196A189238C938BB18370DE
:1023400088628BB985B18C7F6370682B65B9A58D68
:10235000B68D8C9197A189238C93A58DB68D8C9188
:1023600093A1892B8C93A38DB48D8C9192A1892BF1
:102370008C9383E290E0DC011197F1F77BB1C52EDD
:10238000DD24EE24FF2473706C2D6C7F762B7BB9DB
:1023900065B16C7F7C2D7370672B65B9A58DB68D8B
:1023A0006C9177A167236C93A58DB68D6C9173A109
:1023B000672B6C93DC011197F1F77BB16A01EE2476
:1023C000FF2473706C2D6C7F762B7BB965B16C7FAD
:1023D0007C2D7370672B65B9A58DB68D6C9177A137
:1023E00067236C93A58DB68D6C9173A1672B6C934D
:1023F000DC011197F1F77BB1C32ED42EE52EFF241B
:1024000073706C2D6C7F762B7BB965B16C7F7C2DE6
:102410007370672B65B9A58DB68D6C9177A1672315
:102420006C93A58DB68D6C9173A1672B6C930197FE
:10243000F1F78BB18370922F9C7F892B8BB985B17B
:102440008C7F2370282B25B9A58DB68D8C9197A1F3
:1024500089238C93A58DB68D8C9193A1892B8C9318
:10246000A18DB28D8C9191A1892B8C93FF90EF90CF
:10247000DF90CF900895FC01A38DB48D8C9196A12F
:1024800089238C938BB18370962F9C7F892B8BB97A
:1024900085B18C7F6370682B65B9A58DB68D8C91E5
:1024A00097A189238C93A58DB68D8C9193A1892BAF
:1024B0008C93A38DB48D8C9192A1892B8C938BB12D
:1024C0008370932F9C7F892B8BB985B18C7F337060
:1024D000382B35B9A58DB68D8C9197A189238C9316
:1024E000A58DB68D8C9193A1892B8C93A38DB48DE2
:1024F0008C9196A189238C938BB18370942F9C7FB0
:10250000892B8BB985B18C7F4370482B45B9A58D3C
:10251000B68D8C9197A189238C93A58DB68D8C91C6
:1025200093A1892B8C93A38DB48D8C9192A1892B2F
:102530008C938BB18370922F9C7F892B8BB985B143
:102540008C7F2370282B25B9A58DB68D8C9197A1F2
:1025500089238C93A58DB68D8C9193A1892B8C9317
:102560000895FC01A38DB48D8C9196A189238C9341
:102570008BB18370972F9C7F892B8BB985B18C7F12
:102580007370782B75B9A58DB68D8C9197A1892321
:102590008C93A58DB68D8C9193A1892B8C938BB147
:1025A0008370962F9C7F892B8BB985B18C7F63704C
:1025B000682B65B9A58DB68D8C9197A189238C93D5
:1025C000A58DB68D8C9193A1892B8C93A38DB48D01
:1025D0008C9192A1892B8C938BB18370952F9C7FCA
:1025E000892B8BB985B18C7F5370582B55B9A58D2C
:1025F000B68D8C9197A189238C93A58DB68D8C91E6
:1026000093A1892B8C938BB18370942F9C7F892B02
:102610008BB985B18C7F4370482B45B9A58DB68D9C
:102620008C9197A189238C93A58DB68D8C9193A1C4
:10263000892B8C930895FC01A38DB48D8C9196A168
:1026400089238C938BB18370962F9C7F892B8BB9B8
:1026500085B18C7F6370682B65B9A58DB68D8C9123
:1026600097A189238C93A58DB68D8C9193A1892BED
:102670008C93A38DB48D8C9192A1892B8C938BB16B
:102680008370942F9C7F892B8BB985B18C7F43708D
:10269000482B45B9A58DB68D8C9197A189238C9334
:1026A000A58DB68D8C9193A1892B8C930895AF92B3
:1026B000BF92CF92DF92EF92FF920F931F93CF932F
:1026C000DF93FC01A18DB28D8C9195A189238C9310
:1026D000A38DB48D8C9196A189238C93808D8230AB
:1026E00009F0C6C08BB183708C628BB985B18C7FC9
:1026F00085B9A58DB68D8C9197A189238C93A58DD5
:10270000B68D8C9193A1892B8C93A38DB48D8C91D4
:1027100092A1892B8C938BB1D72FDC7F83708D2B6B
:102720008BB985B1C72FC3708C7F8C2B85B9A58DD4
:10273000B68D8C9197A189238C93A58DB68D8C91A4
:1027400093A1892B8C938BB1962F9C7FB92E83708C
:10275000892B8BB985B1A62FA370AA2E8C7F8A2BCB
:1027600085B9058D168DD8018C9197A189238C93FD
:10277000058D168DD8018C9193A1892B8C932150B6
:1027800031094109510969017A0186E0F694E7941B
:10279000D794C7948A95D1F77613A6C0B1E0CB1A27
:1027A000D10808F484C060E1A58DB68D7C91C7A1E5
:1027B0007C237C93A58DB68D7C91C3A17C2B7C93CF
:1027C000A58DB68D7C91C7A17C237C93A58DB68DFC
:1027D0007C91C3A17C2B7C93A58DB68D7C91C7A1E8
:1027E0007C237C93A58DB68D7C91C3A17C2B7C939F
:1027F000A58DB68D7C91C7A17C237C93A58DB68DCC
:102800007C91C3A17C2B7C93A58DB68D7C91C7A1B7
:102810007C237C93A58DB68D7C91C3A17C2B7C936E
:10282000A58DB68D7C91C7A17C237C93A58DB68D9B
:102830007C91C3A17C2B7C93A58DB68D7C91C7A187
:102840007C237C93A58DB68D7C91C3A17C2B7C933E
:10285000A58DB68D7C91C7A17C237C93A58DB68D6B
:102860007C91C3A17C2B7C93615009F09DCF96CFC6
:1028700081111AC08BB183708BB985B18C7F85B9FA
:10288000A58DB68D8C9197A189238C93A58DB68D3E
:102890008C9193A1892B8C938BB1837080628BB9BF
:1028A00085B18C7F826024CF8330B1F71BCF2F732B
:1028B000215008F403C1A58DB68D8C9197A1892371
:1028C0008C93A58DB68D8C9193A1892B8C93A58D1E
:1028D000B68D8C9197A189238C93A58DB68D8C9103
:1028E00093A1892B8C93E4CF91E0C91AD10808F405
:1028F000B5C070E16BB163706D2B6BB965B16C7F66
:102900006C2B65B9058D168DD8016C91F7A06F21E0
:102910006C93058D168DD8016C91F3A06F296C9383
:102920006BB163706B296BB965B16C7F6A2965B94E
:10293000058D168DD8016C91F7A06F216C93058DD4
:10294000168DD8016C91F3A06F296C936BB16370F5
:102950006D2B6BB965B16C7F6C2B65B9058D168DD0
:10296000D8016C91F7A06F216C93058D168DD8015D
:102970006C91F3A06F296C936BB163706B296BB989
:1029800065B16C7F6A2965B9058D168DD8016C918A
:10299000F7A06F216C93058D168DD8016C91F3A073
:1029A0006F296C936BB163706D2B6BB965B16C7FE4
:1029B0006C2B65B9058D168DD8016C91F7A06F2130
:1029C0006C93058D168DD8016C91F3A06F296C93D3
:1029D0006BB163706B296BB965B16C7F6A2965B99E
:1029E000058D168DD8016C91F7A06F216C93058D24
:1029F000168DD8016C91F3A06F296C936BB1637045
:102A00006D2B6BB965B16C7F6C2B65B9058D168D1F
:102A1000D8016C91F7A06F216C93058D168DD801AC
:102A20006C91F3A06F296C936BB163706B296BB9D8
:102A300065B16C7F6A2965B9058D168DD8016C91D9
:102A4000F7A06F216C93058D168DD8016C91F3A0C2
:102A50006F296C93715009F04DCF46CF2F732150E1
:102A600068F18BB183708D2B8BB985B18C7F8C2BEA
:102A700085B9458D568DDA018C9197A189238C9368
:102A8000458D568DDA018C9193A1892B8C938BB156
:102A900083708B298BB985B18C7F8A2985B9458D47
:102AA000568DDA018C9197A189238C93458D568D93
:102AB000DA018C9193A1892B8C93D1CFA18DB28D0A
:102AC0008C9191A1892B8C93DF91CF911F910F91C4
:102AD000FF90EF90DF90CF90BF90AF900895CF938D
:102AE000DF93EC01E98DFA8D80819DA1892380839C
:102AF000288539852150310945E064E0CE010E94E6
:102B00003B122A853B852150310949E068E0CE011E
:102B10000E943B12E98DFA8D808199A1892B8083D7
:102B2000DF91CF9108958F929F92AF92BF92CF92F3
:102B3000DF92EF92FF920F931F93CF93DF93EC01FD
:102B40007A016901E98DFA8D80819DA189238083B5
:102B5000888D811171C08D89823009F44BC083301A
:102B600009F45CC05A014B01813069F48FEE90E0AA
:102B70009C01201B310B4C01841A950A5B018601D4
:102B800064017B01B901AB0160E570E0CE010E94F8
:102B9000B112A60161E570E0CE010E94B112A70159
:102BA00062E570E0CE010E94B112A80163E570E019
:102BB000CE010E94B112A40160E270E0CE010E9439
:102BC000B112A50161E270E0CE010E94B112E98D5F
:102BD000FA8D808199A1892B8083DF91CF911F91FC
:102BE0000F91FF90EF90DF90CF90BF90AF909F90AC
:102BF0008F9008958FEE90E09C012C193D096C0197
:102C0000C61AD70A8FE391E0AC01401B510B8C012F
:102C10000E191F09580146017A01B4CF8FE391E0E4
:102C20009C012C193D095C01A61AB70A4A016801EA
:102C30008501B7017901A7CF8130C9F49B0143E039
:102C400062E0CE010E943B12970147E066E0CE01B0
:102C50000E943B12960145E064E0CE010E943B12C7
:102C6000980149E068E0CE010E943B12B0CF82504B
:102C7000823008F0ACCFCB01770FAA0BBB0BDC0185
:102C8000992788279601DD0C440B550B282B392BEF
:102C90004A2B5B2B6AE2CE010E948D11C701FF0C0B
:102CA000AA0BBB0BDC0199278827012E000C220BF5
:102CB000330BA9019801282B392B4A2B5B2B6BE294
:102CC000CE010E948D1183CF0F931F93CF93DF937B
:102CD00083708093CC052091BB053091BC05409159
:102CE000BD055091BE05813009F4AFC0833009F4B1
:102CF000ACC03093C0052093BF055093C2054093EC
:102D0000C105E091D005F091D10580819091DC055D
:102D1000892380838091CF05811128C0E091CC0563
:102D2000E15040E350E1E33038F4F0E0EE0FFF1FF4
:102D3000E15DFE4F4081518163E070E087EB95E0FB
:102D40000E94B1120091C1051091C20501501109F4
:102D50002091BF053091C0052150310950E040E07D
:102D600070E060E087EB95E00E9493158091CF05BD
:102D7000813099F4E091CC05E15040E0E33020F45B
:102D8000F0E0E65EFE4F408166E187EB95E00E9451
:102D90001B1387EB95E00E946F158091CF05823061
:102DA00039F58091CC05813009F45AC008F456C039
:102DB000823009F457C0833009F4D8E24D2F66E31E
:102DC00087EB95E00E941B130091C1051091C2058D
:102DD000015011092091BF053091C00521503109E2
:102DE00050E040E070E060E087EB95E00E949315D2
:102DF0008091CF05833021F58091CC058130B1F1F0
:102E000098F18230A9F1833009F4C0E64C2F66E3D3
:102E100087EB95E00E941B130091C1051091C2053C
:102E2000015011092091BF053091C0052150310991
:102E300050E040E070E060E087EB95E00E94931581
:102E4000DF91CF911F910F9108955093C00540934A
:102E5000BF053093C2052093C10553CFD8E8AECF4C
:102E6000D8EEACCFD8E4AACFC0ECD0CFC0EACECF5A
:102E7000C0E0CCCFAF92BF92CF92DF92EF92FF92A1
:102E80000F931F93CF93DF93EC017B016A01B22E66
:102E9000A32E77FD3BC057FD39C0888599856817FB
:102EA0007907A4F58A859B85481759077CF5E98D34
:102EB000FA8D80819DA189238083888D811145C0F1
:102EC0008D89823071F18330C9F1813031F48FEE18
:102ED00090E0841B950B6B017C01A70160E270E020
:102EE000CE010E94B112A60161E270E0CE010E9403
:102EF000B1124B2D5A2D62E270E0CE010E94B11248
:102F0000E98DFA8D808199A1892B8083DF91CF9102
:102F10001F910F91FF90EF90DF90CF90BF90AF90F7
:102F200008958FEE90E09C01261B370B79018FE30B
:102F300091E09C01241B350B6901CFCF8FE391E019
:102F4000861B970B7A016C01C8CF813009F06CC0E9
:102F5000ED89E15040E0E33020F4F0E0E65EFE4F22
:102F6000408166E1CE010E941B13970143E062E0BD
:102F7000CE010E943B12960147E066E0CE010E941E
:102F80003B12EB8DFC8D80819EA1892380838BB1C8
:102F9000837080628BB985B18C7F826085B9ED8D3D
:102FA000FE8D80819FA189238083ED8DFE8D8081A0
:102FB0009BA1892B8083EB8DFC8D80819AA1892B2D
:102FC00080838BB183709A2D9C7F892B8BB985B1BF
:102FD0008C7F3A2D3370A32EA82AA5B8ED8DFE8DD7
:102FE00080819FA189238083ED8DFE8D80819BA1AF
:102FF000892B80838BB183709B2D9C7F892B8BB910
:1030000085B18C7F9B2D9370B92EB82AB5B8ED8D04
:10301000FE8D80819FA189238083ED8DFE8D80812F
:103020009BA1892B80836CCF8250823008F068CFBF
:103030000A851B85015011092885398521503109E0
:10304000CE010E949315E98DFA8D80819DA189237F
:103050008083EB8DFC8D80819EA1892380838BB141
:1030600083708C628BB985B18C7F85B9ED8DFE8DB7
:1030700080819FA189238083ED8DFE8D80819BA11E
:10308000892B8083EB8DFC8D80819AA1892B808395
:103090008BB183709A2D9C7F892B8BB995B19C7FC6
:1030A0002A2D2370A22EA92AA5B8ED8DFE8D808130
:1030B0009FA189238083ED8DFE8D80819BA1892B2B
:1030C00080838BB183709B2D9C7F892B8BB995B1AD
:1030D0009C7F3B2D3370B32EB92A98CFEF92FF928D
:1030E0000F931F93CF93DF93EC017B01888D8111A8
:1030F00035C08D898150833060F590E0FC01E95E38
:10310000FE4F408150E0880F991FFC01EF5EFE4F9B
:1031100000811181E98DFA8D80819DA189238083B1
:1031200060E270E0CE010E94B112A80161E270E09D
:10313000CE010E94B11220E03CE241E050E0B70134
:10314000CE01DF91CF911F910F91FF90EF900C94E2
:10315000571310E000E050E040E0DCCF81508330B6
:1031600050F70A851B8501501109288539852150A2
:10317000310950E040E070E060E0CE010E9493151C
:10318000DACF8F929F92AF92BF92CF92DF92EF925F
:10319000FF920F931F93CF93DF93EC01F901D801B6
:1031A00047011E161F06ECF41A161B06D4F4A88459
:1031B000B9846A157B05ACF48A859B854817590745
:1031C00084F47901E60EF71E97012150310937FD8D
:1031D00008C06801C40ED51E86010150110917FFF1
:1031E00056C0DF91CF911F910F91FF90EF90DF902C
:1031F000CF90BF90AF909F908F90089570E060E067
:1032000057FD33C06D012A153B0534F0950121505F
:1032100031097501E61AF70A0817190734F08C010D
:10322000015011096C01C41AD50ACE010E949315F0
:103230009701D6010E9403329B01AC01B401CE017B
:103240000E945713888D811113C00A851B85015078
:103250001109288539852150310950E040E070E09E
:1032600060E0CE010E949315BCCF50E040E0CBCF90
:10327000CE01DF91CF911F910F91FF90EF90DF90E2
:10328000CF90BF90AF909F908F900C946F1577FD6B
:10329000B5CF7F01B5CFCF92DF92EF92FF920F9320
:1032A0001F93CF93DF93EC01690178011216130687
:1032B0000CF03FC077FD3DC0888599856817790778
:1032C000C4F58A859B85481759079CF5240F351F3F
:1032D00089010150110917FD2CC057FF03C0690176
:1032E00050E040E00817190734F08C010150110933
:1032F0006C01C41AD50A9B01CE010E949315960158
:10330000DD0C440B550BB701CE010E945713888D7D
:10331000811118C00A851B8501501109288539853E
:103320002150310950E040E070E060E0CE010E94A1
:103330009315DF91CF911F910F91FF90EF90DF9048
:10334000CF900895CE01DF91CF911F910F91FF9003
:10335000EF90DF90CF900C946F15CF92DF92EF92A9
:10336000FF920F931F93CF93DF93EC0169017801D4
:10337000121613060CF040C057FD3EC08A859B858F
:1033800048175907CCF58885998568177907A4F5FA
:10339000F901E60FF71F9F012150310937FD2CC0BD
:1033A00077FF03C06F0170E060E02817390734F041
:1033B0009C01215031096C01C61AD70A8A01CE013D
:1033C0000E9493159601DD0C440B550BB701CE01FD
:1033D0000E945713888D811118C00A851B850150E2
:1033E0001109288539852150310950E040E070E00D
:1033F00060E0CE010E949315DF91CF911F910F9154
:10340000FF90EF90DF90CF900895CE01DF91CF91A4
:103410001F910F91FF90EF90DF90CF900C946F155C
:1034200008952F923F924F925F926F927F928F9268
:103430009F92AF92BF92CF92DF92EF92FF920F9343
:103440001F93CF93DF93CDB7DEB72C970FB6F894C9
:10345000DEBF0FBECDBF9C878B876A3061F5DC0174
:1034600054968C91B8E08B9F90011124EB85FC85DC
:1034700086859785820F931F978786871586148682
:1034800081E090E02C960FB6F894DEBF0FBECDBF62
:10349000DF91CF911F910F91FF90EF90DF90CF9030
:1034A000BF90AF909F908F907F906F905F904F9064
:1034B0003F902F9008956D3019F3AB85BC851C9615
:1034C000CD90DC901D9718968D919C911997C816F8
:1034D000D9060CF08BC01E968D909C901F971A9663
:1034E0008D919C911B97881699060CF07FC054967D
:1034F000BC91B983AB2EB12CC601E6E0BE9F800D16
:10350000911D1124181619060CF070C0C50123E096
:10351000880F991F2A95E1F7880D991D181619062D
:103520000CF064C0AB85BC8557968C91811103C0AB
:10353000603B08F06F5FEB85FC850288F389E02D26
:10354000FC83EB83AB85BC8550960D90BC91A02D80
:10355000BE83AD8326011A8288E690E08C199D090E
:10356000FC0125E0629FE00DF11D1124FA87E98737
:103570003A81E0E0353029F0E985FA85E40DF51D62
:10358000E4911401712C612C4E2F50E058874F8329
:10359000E0FF6AC0AB85BC85ED91FC91B981B1308B
:1035A00009F055C00084F185E02D2D813E81A401F4
:1035B000460D571DB2018B859C850995EF81F885D5
:1035C000F595E795FFEF6F1A7F0A2A0C3B1C28E060
:1035D00062167104C9F63FEF431A530ACA0CDB1C8A
:1035E0004A814F5F4A83463009F0C2CFAB85BC8524
:1035F00054964C915497242F30E01C968D919C91B9
:10360000B6E04B9F800D911D1124EB85FC859587BD
:1036100084874689442309F433CF6AEF6203A0010B
:10362000639F500D112460857185460F571F481701
:1036300059070CF025CF83E0220F331F8A95E1F75D
:1036400086859785280F391F3787268717CF0288E9
:10365000F389E02DED80FE8085019501A101B60181
:103660008B859C850995AACFEB81FC812D813E81BC
:10367000E217F30709F4A2CFAB85BC85ED91FC916D
:10368000B981B13031F40084F185E02D2B813C818A
:103690008ECF0288F389E02DEB80FC80DDCFEF92A6
:1036A000FF920F931F93DC011A960D911C911B97AB
:1036B00018962D913C911997ED91FC910288F38910
:1036C000E02D7B0150E040E070E060E009951F9143
:1036D0000F91FF90EF9008956F927F928F929F923B
:1036E000AF92BF92CF92DF92EF92FF920F931F9310
:1036F000CF93DF936C015A014801EB013B01620E4D
:10370000731EC615D70574F4D601ED91FC9104849F
:10371000F585E02D87019401A501BE01C60109953B
:103720002196EFCFDF91CF911F910F91FF90EF90F6
:10373000DF90CF90BF90AF909F908F907F906F90D1
:103740000895EF92FF920F931F93260F371F21507A
:103750003109DC01ED91FC910284F385E02D7801C3
:103760008A0109951F910F91FF90EF900895EF92B4
:10377000FF920F931F93240F351F21503109DC0155
:10378000ED91FC910284F385E02D780189019B0184
:1037900009951F910F91FF90EF9008956F927F927E
:1037A0008F929F92AF92BF92CF92DF92EF92FF9251
:1037B0000F931F93CF93DF93EC016B015A013901F3
:1037C0004801E881F9810684F785E02D8701099594
:1037D000A501480D591D41505109E881F981068420
:1037E000F785E02D9301B601CE010995E881F981B5
:1037F0000484F585E02D9401A501B601CE0109955B
:10380000C60CD71CB60161507109E881F9810484A6
:10381000F585E02D9401A501CE010995DF91CF91A9
:103820001F910F91FF90EF90DF90CF90BF90AF90DE
:103830009F908F907F906F9008952F923F924F921C
:103840005F926F927F928F929F92AF92BF92CF9230
:10385000DF92EF92FF920F931F93CF93DF9300D0ED
:1038600000D000D0CDB7DEB73C016A013E832D8386
:10387000FC82EB825801A41AB50AB7FE03C0B194CA
:10388000A194B1088D809E80861A970A97FE03C086
:103890009194819491088A149B045CF0902F812F5D
:1038A0000D811E819D838E839C2D8D2D6B01692F33
:1038B000782F0C151D055CF09D818E817E836D83B4
:1038C000692F782F902F812F8601C92ED82E1601AF
:1038D000201A310A2B012D813E81421A530A57FECC
:1038E00003C0519441945108710137FE03C03FEF6A
:1038F000E31AF30AF594E7948D819E818617970762
:103900005CF5A1E0B0E0BA83A983C016D1064CF102
:10391000D301ED91FC910084F185E02D2B813C8158
:10392000A8016D817E818A149B041CF04D815E810B
:10393000B801C3010995E418F508F7FE0AC02D8106
:103940003E8189819A81280F391F3E832D83E20CA5
:10395000F31C0F5F1F4FD9CF2FEF3FEF3A8329831F
:10396000D4CF26960FB6F894DEBF0FBECDBFDF9141
:10397000CF911F910F91FF90EF90DF90CF90BF906C
:10398000AF909F908F907F906F905F904F903F90FF
:103990002F9008950F931F93CF93DF9300D000D003
:1039A000CDB7DEB78C010E945F118983C8010E94E8
:1039B0005F118A83C8010E945F118B83C8010E9436
:1039C0005F118C8369817A818B819C810F900F902C
:1039D0000F900F90DF91CF911F910F9108950F934A
:1039E0001F93CF93DF9300D0CDB7DEB78C010E9439
:1039F0005F118983C8010E945F118A8389819A813E
:103A00000F900F90DF91CF911F910F910895CF9359
:103A1000DF93EC01FB01828193819B838A83848104
:103A20009581A681B7818C839D83AE83BF8380857A
:103A30009185A285B38588879987AA87BB8781E20C
:103A400091E0998388838DE03C96DE011C9601907D
:103A50000D928A95E1F7FB01818D928D9A8F898F66
:103A6000DF91CF9108952F923F924F925F926F9284
:103A70007F928F929F92AF92BF92CF92DF92EF92FE
:103A8000FF920F931F93CF93DF9300D01F92CDB778
:103A9000DEB76091B40570E0FB01EC54FA4F04917D
:103AA0008091B105A82FB0E0FD01EC54FA4F2491AC
:103AB00029834091B30550E0FA01EC54FA4FD490B9
:103AC0002091B20530E0F901EC54FA4F6490FB010B
:103AD000EA56FA4F3490FD01EA56FA4FF490FA0193
:103AE000EA56FA4FE490F901EA56FA4F249060E062
:103AF0000E94140560E08091B2050E94140599812E
:103B0000892F90E0880F991F86559A4F9B838A834F
:103B1000FC01A591B4918C912F2D209529838223AE
:103B20008C93712C660C771CC30186559A4F3C010F
:103B3000FC01A591B4919C91822D809589238C9351
:103B400061E08091B4050E94140561E08091B305A5
:103B50000E94140510E0000F111F06551A4FF801BE
:103B6000A591B4918C9183298C93ED2DF0E0EE0F0B
:103B7000FF1FE655FA4FA591B491EC91E094EE2227
:103B8000EC928091B1050E9445054C018091B105F0
:103B90000E9445056C012FEF33E02901481A590AAC
:103BA00060E08091B4050E94140560E08091B30547
:103BB0000E941405F801A591B4918C913094832151
:103BC0008C9361E08091B1050E941405EA81FB812C
:103BD000A591B491EC91FE2AFC9261E08091B2052E
:103BE0000E9414058091B3050E9445055C018091F7
:103BF000B3050E9445057C018A159B0529F4BB2469
:103C0000B3948C149D0409F0B12C61E08091B4054B
:103C10000E941405F801A591B491EC913E223C92CA
:103C2000F301A591B491EC912E2A2C92EA81FB81AB
:103C3000A591B4918C91998189238C9360E08091B6
:103C4000B1050E9414058091B3050E9445059B8330
:103C50008A838091B1050E9445050091B5051091B8
:103C6000B6050115110509F4A9C0BC01990F880B0F
:103C7000990B0E94FE303B014C012A813B81B90126
:103C8000330F880B990B0E94FE309B01AC01C401DD
:103C9000B3010E94543020E030E040E85FE30E942E
:103CA000E72F3B014C01B201052C000C880B990B4E
:103CB0000E94FE30A40193010E948A313B014C0115
:103CC000B80190E080E00E94FC30A40193010E94C2
:103CD0008A3120E030E040E85AE30E948A310E94B5
:103CE000C6307B836A83B11002C01B821A8261E0F6
:103CF00081E10E94140561E080E10E94140561E009
:103D000081E10E94C80461E080E10E94C8046A81E8
:103D10007B81695C710931E039836F3183E0780719
:103D200008F019826F31734090F5A091BF05B091F2
:103D3000C0059701FF0C440B550B27583109410969
:103D400051090E94AE2F26E133E040E050E00E948E
:103D5000842F3093730220937202A091C105B09119
:103D6000C205052C000C66087708A30192012F57A5
:103D70003109410951090E94AE2F2CE033E040E0A7
:103D800050E00E94842F30931902209318028981F9
:103D90000F900F900F90DF91CF911F910F91FF9097
:103DA000EF90DF90CF90BF90AF909F908F907F90DB
:103DB0006F905F904F903F902F9008952A813B81A4
:103DC000281B390B21503C4F3B832A838CCFEF9229
:103DD000FF920F931F93CF93DF93CDB7DEB72C974E
:103DE0000FB6F894DEBF0FBECDBFE982FA820B8317
:103DF0001C832D833E834F8358878091720290915C
:103E000073022D813E81281739074CF52F813885A3
:103E10008217930724F580911802909119022B8143
:103E20003C8182179307DCF429813A8128173907EE
:103E3000B4F410921402109215021092160210920D
:103E4000170281E02C960FB6F894DEBF0FBECDBFEF
:103E5000DF91CF911F910F91FF90EF90089580E037
:103E6000F1CF089590E080E008950F931F93CF93D2
:103E7000DF93EC0180E2689FF0011124E953FD4FCC
:103E80006A8B8091030190910401A0910501B0918A
:103E900006018E879F87A88BB98B0489158930E02E
:103EA00020E09801112700270F8B188F298F3A8F58
:103EB000828D938DB0E0A0E0AC01BD01402B512B71
:103EC000622B732B4F8B588F698F7A8F8385887104
:103ED000A9F4848D958DA68DB78D8B8B9C8BAD8B26
:103EE000BE8B81E08D8381E08C831E821F821886C9
:103EF00019861A861B861C861D8603C0803131F008
:103F000080E0DF91CF911F910F9108959E012D5E6A
:103F10003F4F8B8D9C8D0E94D50A882389F384E0C6
:103F2000E1CFAF92BF92CF92DF92EF92FF920F93C9
:103F30001F93CF93DF93CDB7DEB72B970FB6F894CF
:103F4000DEBF0FBECDBF6C01FE013196CE010C96D7
:103F50007F0120E22193E817F907E1F7DA0120E079
:103F600037E09D91B92E9923A9F19E32B9F43A30E8
:103F700091F480E02B960FB6F894DEBF0FBECDBF54
:103F8000DF91CF911F910F91FF90EF90DF90CF9035
:103F9000BF90AF90089528E03AE0E3CFE6E8F5E07F
:103FA0008491882321F031969813FACFE2CF32170B
:103FB00000F38FED890F8E35E0F68FE9890F8A3196
:103FC00018F440EEB42EB90EF701E20FF11DB082E5
:103FD0002F5FC7CF8981803261F28B01FB01838D16
:103FE000948DF601948F838FFB01168217821086C1
:103FF00011861286138614861586F80182859385AC
:10400000A485B58543895489658976898417950780
:10401000A607B70708F0ADCF25E0B695A795979509
:1040200087952A95D1F7F82FFF70AF2EF80185817B
:10403000823008F49ECFC8010E94481197FD99CFA5
:10404000F80182859385A485B5854F96A11DB11D84
:1040500082879387A487B587F0E2AF9EB0011124D1
:1040600069537D4F6115710509F483CFFB01808190
:10407000882309F1853E19F4B11032C01EC04BE00F
:1040800050E0C7010E944233892B09F0B6CF6A2D58
:10409000C6012B960FB6F894DEBF0FBECDBFDF91E1
:1040A000CF911F910F91FF90EF90DF90CF90BF9035
:1040B000AF900C94351FB1105CCFF601A28A8091AD
:1040C000030190910401A0910501B091060186873A
:1040D0009787A08BB18BFB018081882309F449CF9E
:1040E000BB24B3948ACF0E943D33FB010190002092
:1040F000E9F73197AF01461B570BDC01ED91FC91BD
:104100000280F381E02D0994CF92DF92EF92FF922B
:104110000F931F93CF93DF93CDB7DEB7A1970FB661
:10412000F894DEBF0FBECDBF282F30E050E040E056
:1041300019A28E010F5D1F4F8AE0C82ED12CE12CF1
:10414000F12CCA01B901A70196010E94B62F605D4A
:10415000F80162938F01211531054105510589F759
:104160003097E9F0BF0187EB95E00E9475208C0144
:104170006FE671E087EB95E00E947520800F911F3C
:10418000A1960FB6F894DEBF0FBECDBFDF91CF91E1
:104190001F910F91FF90EF90DF90CF90089510E066
:1041A00000E0E6CF0F931F93CF93DF93EC010E94C3
:1041B00075208C016FE671E0CE010E947520800FA2
:1041C000911FDF91CF911F910F910895AF92BF92F0
:1041D000CF92DF92EF92FF920F931F93CF93DF93D3
:1041E000F12CE12C00EF10E02EE031E050E040E057
:1041F00070E060E087EB95E00E94C1180091A40296
:104200001091A5022091A2023091A30240919A023E
:1042100050919B0260919E0270919F0280EEE82E69
:1042200087E0F82E87EB95E00E94CE1B0091980264
:1042300010919902209196023091970240918E023E
:1042400050918F02609192027091930287EB95E0FA
:104250000E94CE1B00918C0210918D0220918A0247
:1042600030918B02409182025091830260918602CC
:104270007091870287EB95E00E94CE1B009180022F
:104280001091810220917E0230917F02409176024E
:104290005091770260917A0270917B0287EB95E0F2
:1042A0000E94CE1BA0909E02B0909F02C0919A02E5
:1042B000D0919B02219665018FEFC81AD80A2091F0
:1042C000A0023091A1022A193B0922503109F12C98
:1042D000E12C08E010E0AE01B60187EB95E00E940A
:1042E000C1182091750230E02A193B09225031098A
:1042F00090EEE92E97E0F92EAE01B60187EB95E03E
:104300000E94C118A0909202B0909302C0918E02B8
:10431000D0918F02219665018FEFC81AD80A20919B
:104320009402309195022A193B0922503109F12C4F
:10433000E12CAE01B60187EB95E00E94C1182091F7
:10434000740230E02A193B092250310940EEE42E74
:1043500047E0F42EAE01B60187EB95E00E94C1184C
:1043600082E08093CB0509E110E01093C40500932F
:10437000C305CBE4D0E0D093C605C093C50562E782
:1043800071E087EB95E00E94D2201093C405009362
:10439000C3058DE790E09093C6058093C5056BE754
:1043A00071E087EB95E00E94D22081E08093CB05FD
:1043B000D093C405C093C3050FEA10E01093C6055F
:1043C0000093C50564E871E087EB95E00E94D22078
:1043D000C6E9D0E0D093C405C093C3051093C605C9
:1043E0000093C5056CE871E087EB95E00E94D22050
:1043F0005FE0C52ED12CD092C405C092C30564E6FF
:10440000A62EB12CB092C605A092C50567E971E051
:1044100087EB95E00E94D22001EE10E01093C405D6
:104420000093C305B092C605A092C50565E971E089
:1044300087EB95E00E94D220D092C405C092C305BC
:10444000D093C605C093C50567E971E087EB95E099
:104450000E94D2201093C4050093C305D093C605D3
:10446000C093C50565E971E087EB95E00E94D22015
:1044700085E08093CB0583E590E09093C40580931D
:10448000C3058BEB90E09093C6058093C5058091A2
:10449000C102882331F065EA71E087EB95E00E9464
:1044A000D22082EA90E09093C4058093C3058BEB01
:1044B00090E09093C6058093C50580910001882304
:1044C00081F065EA71E087EB95E0DF91CF911F9174
:1044D0000F91FF90EF90DF90CF90BF90AF900C9432
:1044E000D220DF91CF911F910F91FF90EF90DF903D
:1044F000CF90BF90AF900895EF92FF920F931F93CC
:10450000CF93DF93EC017B018A011B821A8288EE34
:1045100093E0A0E0B0E08C839D83AE83BF8381E213
:1045200091E0998388838DE190E00E9418329A8F00
:10453000898F009779F02DE1F701DC0101900D9250
:104540002A95E1F74CE050E0B801CE010C960E94AC
:104550005A33188EDF91CF911F910F91FF90EF90FA
:1045600008952F923F924F925F926F927F928F9217
:104570009F92AF92BF92CF92DF92EF92FF920F93F2
:104580001F93CF93DF93CDB7DEB7C85CD1090FB6C9
:10459000F894DEBF0FBECDBF8C013B015A0149012B
:1045A000C156DF4F19821882CF59D04088EE93E070
:1045B000A0E0B0E0CF55DF4F88839983AA83BB8307
:1045C000C15AD04081E291E0C356DF4F998388837E
:1045D000CD59D040CA54DF4F19821882C65BD040F3
:1045E000C755DF4F1882C95AD0400E942806D8010B
:1045F0001596BC92AE9214978D929C928091BF05B5
:104600009091C005A816B9060CF06FC38091C10542
:104610009091C205881699060CF067C321961FAECB
:104620001EAE21978BE491E09EAF8DAF23961FAE17
:1046300023971C821B829A8389831E822E01BDE3ED
:104640004B0E511CC2010E94400B6301FE013196CA
:104650007F01342C252C6FE270E0C6010E944F339D
:10466000009709F469C0D6012C912F3271F4BFEF85
:10467000CB1ADB0A9E2D8F2DE32CF22C1C01C101DD
:104680003E2C2F2CE92EF82EE6CF8C198D3008F019
:104690008CE0482E512CA201B601CE018E579F4FBF
:1046A0000E945A33E2E8F0E0EC0FFD1FE40DF51D27
:1046B0001082C7010E94D30EF7018581882359F12A
:1046C000A9961FAE1EAEA9978BE491E0A7969FAF67
:1046D0008EAFA797AB961FAEAB97C854DF4F28801D
:1046E0003980C85BD040620C731CD3018C9181115E
:1046F00034C0BE016B597F4FCE0101960E948C10D1
:1047000049E951E0BE016F5F7F4FCE018E579F4F49
:104710000E947C2257C0AE014E575F4F632D722D11
:10472000C7010E94911F882359F2C40CD51C832D08
:10473000922D0E94D30EA3CF260146185708C854C5
:10474000DF4F59824882C85BD040632D722DCE0165
:104750008B599F4F0E948C10C0CF21961FAE1EAE6A
:1047600021978BE491E09EAF8DAF23961FAE2397E8
:10477000AB968FADAB978111E1C1CC57DF4F19825A
:104780001882C458D04088EE93E0A0E0B0E0CA5749
:10479000DF4F88839983AA83BB83C658D04081E2C8
:1047A00091E0CE57DF4F99838883C258D040C556D9
:1047B000DF4F19821882CB59D040C257DF4F188281
:1047C000CE58D040CC57DF4F88819981C458D04013
:1047D000C156DF4F99838883CF59D040CA57DF4FE6
:1047E00088819981AA81BB81C658D040CF55DF4FBF
:1047F00088839983AA83BB83C15AD040C657DF4FB1
:1048000088819981AA81BB81CA58D040CB55DF4F9E
:1048100088839983AA83BB83C55AD040A2E8B0E0BD
:10482000AC0FBD1F1C96EDE9F0E0EC0FFD1F3C96B0
:104830008DE990E08C0F9D1F49962D912193E817EB
:10484000F907D9F7C556DF4FE881F981CB59D04038
:10485000CA54DF4FF983E883C65BD040309709F430
:1048600044C28581882309F440C2BE0163567F4F4C
:10487000CE0101960E94071DCE0101960E94EF1CF9
:1048800082349D4409F01FC2BE0163567F4FCE01A2
:1048900001960E94071DCE0101960E94CA1CBE010E
:1048A00063567F4FCE0101960E94071DCE010196EF
:1048B0000E94CA1CBE0163567F4FCE0101960E9422
:1048C000071DCE0101960E94CA1CC154DF4F6883A8
:1048D00079838A839B83CF5BD040BE0163567F4F31
:1048E000CE0101960E94071DCE0101960E94CA1CAE
:1048F000BE0163567F4FCE0101960E94071DCE0177
:1049000001960E94CA1C6B01BE0163567F4FCE0107
:1049100001960E94071DCE0101960E94CA1C2B0120
:10492000BE0163567F4FCE0101960E94071DCE0146
:1049300001960E94EF1C019709F0C5C1BE016356A4
:104940007F4FCE0101960E94071DCE0101960E9465
:10495000EF1C883109F0B7C1BE0163567F4FCE010D
:1049600001960E94071DCE0101960E94CA1C672B6A
:10497000682B692B09F0A7C1C654DF4FD982C882C2
:10498000CA5BD040120196012F5F3F4FC901880FCB
:10499000991F820F931FFC01EC7FC454DF4FF983F2
:1049A000E883CC5BD040CF01092E000CAA0BBB0BD7
:1049B000CD53DF4F88839983AA83BB83C35CD040E8
:1049C00057FED5C02224332424183508C254DF4FA3
:1049D0001882CE5BD040D8011996DC92CE921897FF
:1049E0001B963C922E921A9714968D919C91159736
:1049F0008C0D9D1D17969C938E9316978D919C916F
:104A00001197820D931D13969C938E93129780910C
:104A1000BF059091C005CA0CDB1C8C159D054CF49C
:104A20002C014A185B08C654DF4F59824882CA5B82
:104A3000D0406090C1057090C205C101880D991DDC
:104A4000681679060CF09AC0681879088301080D79
:104A5000191D01501109C654DF4F28813981CA5BE5
:104A6000D0402A0D3B1D21503109A401B50187EB2F
:104A700095E00E949315C154DF4F88809980AA80E9
:104A8000BB80CF5BD04001E010E0F12CE12CECE3E7
:104A9000C854DF4FE883C85BD040910121503109F1
:104AA000C953DF4F39832883C75CD040E614F7042D
:104AB0000CF001C1C254DF4F2880CE5BD040B5015D
:104AC000A4012220F1F0C953DF4F28813981C75C4E
:104AD000D0402E193F09C454DF4FA881B981CC5B67
:104AE000D0400E940332C154DF4F288039804A8071
:104AF0005B80CF5BD040260E371E481E591EB20188
:104B0000A101CA54DF4F88819981C65BD0400097CC
:104B1000B9F1DC011A962D903D904D905C901D9757
:104B20004215530564057505B1F10E94940BFCE331
:104B3000C854DF4FF883C85BD0402DC0A301BE012D
:104B40006B597F4FCE01CD960E94911F882309F4A7
:104B500014CECE018B599F4F0E94D30EBE01635CD1
:104B60007F4FCE0101960E948C10A301CBCD91E026
:104B7000C254DF4F9883CE5BD0402DCF310166CF3A
:104B80004F3F5F4F6F4F7F4F31F0ECE3C854DF4F23
:104B9000E883C85BD040D12CC12CC654DF4F28809D
:104BA0003980CA5BD040C214D3040CF074C0C8541E
:104BB000DF4FE881C85BD040EC33F0F0112339F0CF
:104BC000402F612FCE01CD960E940F0300E0CA5402
:104BD000DF4F88819981C65BD040009739F04CE364
:104BE00050E0BE016F5F7F4F0E94280D10E0C85457
:104BF000DF4F1882C85BD040E1E0F0E0EC0FFD1F12
:104C0000C854DF4F2880C85BD040E20DF11D2081E1
:104C1000E22DEF5F44244394512C4C0E5D1E4E0E4A
:104C2000511CF2016081E12FF0E0EE0FFF1F81E0E7
:104C300090E08C0F9D1FE80FF91FA22DAE5F1C01A5
:104C40002A0E311CD101C854DF4F3881C85BD040D7
:104C50003D5FC854DF4F3883C85BD0408C9190E0F3
:104C6000982F88278827987FA8E06A9FB001112491
:104C7000607E7770862B972B30E043E03595279543
:104C80004A95E1F7822B932B95AF84AFBFEFCB1AF8
:104C9000DB0A1F5F82CFEFEFEE1AFE0ACD53DF4F24
:104CA000288039804A805B80C35CD040820C931C92
:104CB000A41CB51CFBCE112331F0402F612FCE0177
:104CC000CD960E940F03CA54DF4F88819981C65B3D
:104CD000D040009751F00E94D30ECA54DF4F888114
:104CE0009981C65BD0400E94B432C853DF4F0FB6E3
:104CF000F894DEBF0FBECDBFDF91CF911F910F9112
:104D0000FF90EF90DF90CF90BF90AF909F908F90EB
:104D10007F906F905F904F903F902F900895EF920B
:104D2000FF920F931F93092E000CAA0BBB0B40910F
:104D300014025091150260911602709117028417A7
:104D40009507A607B70708F0AEC00E94331D882359
:104D500009F4A9C0E0903602F090370200913802C1
:104D60001091390220913A0230913B0240913C026D
:104D700050913D0260913E0270913F02809140024D
:104D8000909141020E94E71E882369F06BE971E06F
:104D900087EC94E00E94752068EE73E080E090E07C
:104DA0000E947F05FFCFE0902A02F0902B02009135
:104DB0002C0210912D0220912E0230912F02409151
:104DC0003002509131026091320270913302809131
:104DD0003402909135020E94E71E882361F0809191
:104DE000B20291E089278093B20267EA71E087EC12
:104DF00094E00E94D220E090A602F090A7020091D9
:104E0000A8021091A9022091AA023091AB02409110
:104E1000AC025091AD026091AE027091AF028091F0
:104E2000B0029091B1020E94E71E882361F0809148
:104E3000B30291E089278093B30261EB71E087ECC4
:104E400094E00E94D220E090B402F090B50200916C
:104E5000B6021091B7022091B8023091B902409188
:104E6000BA025091BB026091BC027091BD02809168
:104E7000BE029091BF020E94E71E8823A1F080919C
:104E8000C00291E023EC30E043E151E089278093B8
:104E9000C0026AEB71E0811102C064EC71E084EB46
:104EA00092E00E94B1228091140290911502A0918B
:104EB0001602B09117020196A11DB11D8093140234
:104EC00090931502A0931602B09317021F910F91B1
:104ED000FF90EF9008951F920F920FB60F9211243A
:104EE0002F933F934F935F936F937F938F939F93F2
:104EF000AF93BF93EF93FF9387EC94E00E94390444
:104F0000FF91EF91BF91AF919F918F917F916F91A1
:104F10005F914F913F912F910F900FBE0F901F9077
:104F200018951F920F920FB60F9211242F938F9303
:104F30009F93EF93FF93E091D704F091D804808181
:104F4000E091DD04F091DE0482FD1BC09081809130
:104F5000E0048F5F8F732091E104821741F0E091AC
:104F6000E004F0E0E953FB4F958F8093E004FF915C
:104F7000EF919F918F912F910F900FBE0F901F90E7
:104F800018958081F4CF1F920F920FB60F921124C3
:104F90002F933F938F939F93AF93BF938091210261
:104FA00090912202A0912302B0912402309120021C
:104FB00023E0230F2D3758F50196A11DB11D209335
:104FC00020028093210290932202A0932302B093A7
:104FD00024028091250290912602A0912702B0918F
:104FE00028020196A11DB11D8093250290932602EF
:104FF000A0932702B0932802BF91AF919F918F9108
:105000003F912F910F900FBE0F901F90189526E89B
:10501000230F0296A11DB11DD2CFBF92CF92DF9276
:10502000EF92FF920F931F93CF93DF93E7ECF4E09F
:105030001382128288EE93E0A0E0B0E0848395832F
:10504000A683B78389E391E09183808385EC90E028
:105050009587848784EC90E09787868780EC90E042
:10506000918B808B81EC90E0938B828B82EC90E033
:10507000958B848B86EC90E0978B868B118E128EAD
:10508000138E148EE4E6F5E080E580831182E6E677
:10509000F5E0158216821186138682E090E0A0E08A
:1050A000B0E084879587A687B78713A215A614A6B4
:1050B0008BE491E093A782A717A6C7EBD5E01B82EC
:1050C0001A8280EFE82EF12CFD82EC8200E411E0E0
:1050D0001F830E83F986E8861B870A871D8A1D8633
:1050E0001C861F861E86BB24B394BC8ACC24CA941B
:1050F000DC2CDB8ACA8AD98AC88ABE8A1F8A87E5DD
:1051000091E09983888382E189A7E5ECF5E0E49159
:10511000F0E0EE0FFF1FE655FA4FA591B491BA8F5C
:10512000A98FE4ECF5E0E491F0E0EE0FFF1FE65507
:10513000FA4F859194919C8F8B8FE3ECF5E0E4918D
:10514000F0E0EE0FFF1FE655FA4F859194919E8F88
:105150008D8FE2ECF5E0E491F0E0EE0FFF1FE655F5
:10516000FA4F8591949198A38F8FE7EAF5E08491A7
:1051700089A3E6EAF5E024912AA3E5EAF5E0949113
:105180009BA3E4EAF5E0E491ECA3382F30953DA32E
:1051900020952EA390959FA3E095E8A7EC91E82B8E
:1051A000EC93EB8DFC8D80819AA1892B8083ED8D12
:1051B000FE8D80819BA1892B8083EF8DF8A180815A
:1051C0009CA1892B808361E081E10E94140561E04C
:1051D00080E10E94140561E08FE00E94140561E007
:1051E0008EE00E94140561E082E10E94C80461E043
:1051F00082E10E9414058AB18C6F8AB984B1836000
:1052000084B91D8A1D861C861F861E86BC8AD98A83
:10521000C88AF986E8861B870A87EFEAF5E081E10C
:10522000828380E1848389E0838388E085838CE2C4
:1052300091E0978386838AE090E091838083DF9179
:10524000CF911F910F91FF90EF90DF90CF90BF9083
:105250000895789484B5826084BD84B5816084BDEE
:1052600085B5826085BD85B5816085BD80916E0004
:10527000816080936E001092810080918100826035
:105280008093810080918100816080938100809172
:1052900080008160809380008091B1008460809361
:1052A000B1008091B00081608093B00080917A005D
:1052B000846080937A0080917A00826080937A0083
:1052C00080917A00816080937A0080917A00806872
:1052D00080937A001092C100E091D704F091D80435
:1052E000C2E0C083E091D304F091D4041082E09135
:1052F000D504F091D6048FEC80831092DF04E09106
:10530000DB04F091DC0486E08083E091D904F09125
:10531000DA04808180618083E091D904F091DA041D
:10532000808188608083E091D904F091DA048081E3
:1053300080688083E091D904F091DA0480818F7DC8
:1053400080830E94B2050E94B20568EC70E080E0A4
:1053500090E00E947F05C093CF05E091D005F091C9
:10536000D10580819091DC058923808340E061E054
:1053700087EB95E00E941B1362E370E080E090E011
:105380000E947F0540E068E287EB95E00E941B13D6
:1053900043E260EC87EB95E00E941B1340E161EC77
:1053A00087EB95E00E941B134BE25BE265EC70E03B
:1053B00087EB95E00E94B11240EC67EC87EB95E03B
:1053C0000E941B1348E866E387EB95E00E941B13DD
:1053D00045E56AE387EB95E00E941B134BE150E043
:1053E00061EB70E087EB95E00E94B11247E067EB5C
:1053F00087EB95E00E941B1340E061E187EB95E0AD
:105400000E941B1366E970E080E090E00E947F0537
:1054100040E069E287EB95E00E941B1364EF71E0C6
:1054200080E090E00E947F050FE311E02FEE30E076
:1054300050E040E070E060E087EB95E00E9493155B
:1054400080919505882321F080E995E00E94D30E94
:105450001092710510926F0510926C0510926B05F9
:105460008AE080936A050E942806EB0161E0809142
:105470006A050E94140561E080916A050E94C804D3
:105480001FB7F89480912902811127C0EEEBF5E057
:105490008491E0EAF5E09491E82FF0E0EE0FFF1F31
:1054A000E458FA4FA591B491EC91E92321F461E01D
:1054B0008AE00E94C80461E08AE00E9414058CB56D
:1054C00080618CBD8CB580648CBD61E08DE00E94F4
:1054D000140561E08BE00E941405809129028F5F22
:1054E000809329021FBF82E58093640510926505B1
:1054F00080916405909165050E946A061AE08FEF1D
:105500000E9445061150D9F786E695E00E946D0687
:1055100020E030E0A90160E086E695E00E94830685
:10552000182F80937005813009F4A7C10E942806C6
:105530006C1B7D0B613D774058F381E080936B05D8
:1055400086E695E00E943A0630EF832E912CA12C3E
:10555000B12C4EE1442E512C20EA222E312CF12C7C
:10556000E12C00EF10E020E431E050E040E070E09A
:1055700060E087EB95E00E94C11825E030E043E150
:1055800051E06DEC71E086E392E00E94B1222DE2E1
:1055900030E043E151E066ED71E08AE292E00E9482
:1055A000B12225E530E043E151E06FED71E086EA9C
:1055B00092E00E94B1228091C00223EC30E043E1EE
:1055C00051E06AEB71E0811102C064EC71E084EBA0
:1055D00092E00E94B122809102018093C3028091E7
:1055E00001018093C2028091C102882381F00E9450
:1055F0002C2FA50194010E94842F6093C3020E9466
:105600002C2FA50194010E94842F6093C202F12CDB
:10561000E12C00EF10E02EE031E050E040E070E0DF
:1056200060E087EB95E00E94C1187090C302872D5F
:105630008695D0EFD81B6090C202862D8695C0EF6C
:10564000C81B072D10E080EFC82ED12CA601401BEF
:10565000510B90EEE92E97E0F92E24E130E062E361
:1056600070E087EB95E00E94C118062D10E0A601BE
:10567000401B510B24E130E065E570E087EB95E0DD
:105680000E94C11881E08093CB0529E130E030937E
:10569000C4052093C305D73E08F0D6EE8D2F90E0C9
:1056A0009093C6058093C505872D0E9484208EE6C1
:1056B00090E09093C4058093C305C73E08F0C6EE02
:1056C000D0E0D093C605C093C5058091C2020E9468
:1056D00084202091C302222379F18091C202622F9B
:1056E0000E94F7312093C2029093C3020E942806C1
:1056F0006B017C0128EEC20E23E0D21EE11CF11CDE
:105700000E9428066C157D058E059F0508F07FCF49
:1057100084EF91E00E948F268091C002811135C1F3
:1057200084EF91E00E948F268091B302811104C022
:105730008091B202882381F382E08093CB0530927E
:10574000C4052092C30588E790E09093C605809336
:10575000C50567EE71E087EB95E00E94D2202FEA45
:1057600030E03093C4052093C3058CE890E090931B
:10577000C6058093C5058091C2020E9484201092C4
:10578000C00223EC30E043E151E064EC71E084EBD3
:1057900092E00E94B1228091C00281110CC084EF7E
:1057A00091E00E948F268091B302811104C0809104
:1057B000B202882381F38091B202882309F43FC1A9
:1057C000F12CE12C00EF10E020E431E050E040E06B
:1057D00070E060E087EB95E00E94C118C1E0809125
:1057E000B202882309F42BC180E38C0F8093F2016D
:1057F00030E020E050E040E06CEE71E086E692E0C0
:105800000E94B1222DE030E042E151E068EF71E00A
:105810008AE592E00E94B122C53009F0C0C023ECB5
:1058200030E04FE050E061E072E082E492E00E94FC
:10583000B1220E94331D8823E1F3E0905A02F090D8
:105840005B0200915C0210915D0220915E0230913A
:105850005F0240916002509161026091620270911A
:10586000630280916402909165020E94E71E882382
:1058700009F4A3C01092B202B2CF2AEA31E040E0AC
:1058800050E068E086E695E00E94830682FF2AC029
:105890001093710580917105C12CD12C7601823055
:1058A00029F4C12CD12CE12C50E4F52E20E030E07D
:1058B000A90167E386E695E00E948306A7019601A9
:1058C00069E286E695E00E9483068093700588234E
:1058D000C1F00E9428066C1B7D0B613D774030F3C0
:1058E00088E02CCE14E00E944C0680937005115085
:1058F000D1F78A3A11F082E021CE82E080937105DF
:10590000C9CF809171058230D1F420E030E0A90147
:105910006AE386E695E00E948306882311F086E01C
:105920000DCE0E944C06807C803C19F483E080936D
:1059300071050E944C060E944C060E944C0686E6A9
:1059400095E00E943A0680E5809364051092650513
:1059500081E00E948908882389F080E995E00E940F
:10596000400B882309F4F0CD70E060E087EB95E010
:105970000E946E1881E00E946416E6CD80E00E94CD
:105980008908882309F4E0CDE8CF8091B302811122
:10599000D3CE8091B202882309F4B2CECDCE23ECCF
:1059A00030E04CE051E06AE072E08EE492E00E9468
:1059B000B122C13009F43DCF32CFE0904E02F090D9
:1059C0004F020091500210915102209152023091E9
:1059D00053024091540250915502609156027091C9
:1059E000570280915802909159020E94E71E882325
:1059F00021F0C53010F4CF5FF2CEE0904202F0907B
:105A000043020091440210914502209146023091D8
:105A10004702409148025091490260914A027091B8
:105A20004B0280914C0290914D020E94E71E882308
:105A300009F4FFCEC13009F4FCCEC150D0CED091D4
:105A4000B302DD2309F4A9C1F12CE12C00EF10E031
:105A500020E431E050E040E070E060E087EB95E06A
:105A60000E94C1182EEB30E043E151E068EF71E095
:105A700086EA92E00E94B12226E930E030939B0250
:105A800020939A0230929D0220929C0250929F0293
:105A900040929E028CED90E09093A1028093A00230
:105AA0008EEB90E09093A3028093A2022AE030E074
:105AB0003093A5022093A40224E630E030938F02B5
:105AC00020938E022EE630E03093910220939002D4
:105AD00050929302409292022CED30E03093950266
